{
  "_format": "hh-sol-artifact-1",
  "contractName": "MarketPlace",
  "sourceName": "contracts/MarketPlace.sol",
  "abi": [
    {
      "inputs": [
        {
          "internalType": "uint256",
          "name": "_feepercent",
          "type": "uint256"
        }
      ],
      "stateMutability": "nonpayable",
      "type": "constructor"
    },
    {
      "anonymous": false,
      "inputs": [
        {
          "indexed": false,
          "internalType": "uint256",
          "name": "itemId",
          "type": "uint256"
        },
        {
          "indexed": true,
          "internalType": "address",
          "name": "nft",
          "type": "address"
        },
        {
          "indexed": false,
          "internalType": "uint256",
          "name": "tokenId",
          "type": "uint256"
        },
        {
          "indexed": false,
          "internalType": "uint256",
          "name": "price",
          "type": "uint256"
        },
        {
          "indexed": true,
          "internalType": "address",
          "name": "seller",
          "type": "address"
        },
        {
          "indexed": true,
          "internalType": "address",
          "name": "buyer",
          "type": "address"
        }
      ],
      "name": "Bought",
      "type": "event"
    },
    {
      "anonymous": false,
      "inputs": [
        {
          "indexed": false,
          "internalType": "uint256",
          "name": "itemId",
          "type": "uint256"
        },
        {
          "indexed": true,
          "internalType": "address",
          "name": "nft",
          "type": "address"
        },
        {
          "indexed": false,
          "internalType": "uint256",
          "name": "tokenId",
          "type": "uint256"
        },
        {
          "indexed": false,
          "internalType": "uint256",
          "name": "price",
          "type": "uint256"
        },
        {
          "indexed": true,
          "internalType": "address",
          "name": "seller",
          "type": "address"
        }
      ],
      "name": "Offered",
      "type": "event"
    },
    {
      "inputs": [],
      "name": "feeAccount",
      "outputs": [
        {
          "internalType": "address",
          "name": "",
          "type": "address"
        }
      ],
      "stateMutability": "view",
      "type": "function"
    },
    {
      "inputs": [],
      "name": "feepercent",
      "outputs": [
        {
          "internalType": "uint256",
          "name": "",
          "type": "uint256"
        }
      ],
      "stateMutability": "view",
      "type": "function"
    },
    {
      "inputs": [
        {
          "internalType": "uint256",
          "name": "_itemId",
          "type": "uint256"
        }
      ],
      "name": "getTotalPrice",
      "outputs": [
        {
          "internalType": "uint256",
          "name": "",
          "type": "uint256"
        }
      ],
      "stateMutability": "view",
      "type": "function"
    },
    {
      "inputs": [],
      "name": "itemCount",
      "outputs": [
        {
          "internalType": "uint256",
          "name": "",
          "type": "uint256"
        }
      ],
      "stateMutability": "view",
      "type": "function"
    },
    {
      "inputs": [
        {
          "internalType": "uint256",
          "name": "",
          "type": "uint256"
        }
      ],
      "name": "items",
      "outputs": [
        {
          "internalType": "uint256",
          "name": "itemId",
          "type": "uint256"
        },
        {
          "internalType": "contract IERC721",
          "name": "nft",
          "type": "address"
        },
        {
          "internalType": "uint256",
          "name": "tokenId",
          "type": "uint256"
        },
        {
          "internalType": "uint256",
          "name": "price",
          "type": "uint256"
        },
        {
          "internalType": "address payable",
          "name": "seller",
          "type": "address"
        },
        {
          "internalType": "bool",
          "name": "sold",
          "type": "bool"
        }
      ],
      "stateMutability": "view",
      "type": "function"
    },
    {
      "inputs": [
        {
          "internalType": "contract IERC721",
          "name": "_nft",
          "type": "address"
        },
        {
          "internalType": "uint256",
          "name": "_tokenId",
          "type": "uint256"
        },
        {
          "internalType": "uint256",
          "name": "_price",
          "type": "uint256"
        }
      ],
      "name": "makeItem",
      "outputs": [],
      "stateMutability": "nonpayable",
      "type": "function"
    },
    {
      "inputs": [
        {
          "internalType": "uint256",
          "name": "_itemId",
          "type": "uint256"
        }
      ],
      "name": "purchaseItem",
      "outputs": [],
      "stateMutability": "payable",
      "type": "function"
    }
  ],
  "bytecode": "0x60a060405234801561001057600080fd5b50604051610f6d380380610f6d833981810160405281019061003291906100b6565b6001600081905550806001819055503373ffffffffffffffffffffffffffffffffffffffff1660808173ffffffffffffffffffffffffffffffffffffffff1681525050506100e3565b600080fd5b6000819050919050565b61009381610080565b811461009e57600080fd5b50565b6000815190506100b08161008a565b92915050565b6000602082840312156100cc576100cb61007b565b5b60006100da848285016100a1565b91505092915050565b608051610e68610105600039600081816101bc015261041f0152610e686000f3fe6080604052600436106100705760003560e01c8063ca7dd3751161004e578063ca7dd3751461010d578063d38ea5bf1461014a578063de65256e14610166578063fa00afc71461019157610070565b806365e17c9d146100755780636bfb0d01146100a0578063bfb231d2146100cb575b600080fd5b34801561008157600080fd5b5061008a6101ba565b6040516100979190610848565b60405180910390f35b3480156100ac57600080fd5b506100b56101de565b6040516100c2919061087c565b60405180910390f35b3480156100d757600080fd5b506100f260048036038101906100ed91906108c8565b6101e4565b60405161010496959493929190610990565b60405180910390f35b34801561011957600080fd5b50610134600480360381019061012f91906108c8565b61026d565b604051610141919061087c565b60405180910390f35b610164600480360381019061015f91906108c8565b6102b2565b005b34801561017257600080fd5b5061017b610585565b604051610188919061087c565b60405180910390f35b34801561019d57600080fd5b506101b860048036038101906101b39190610a2f565b61058b565b005b7f000000000000000000000000000000000000000000000000000000000000000081565b60025481565b60036020528060005260406000206000915090508060000154908060010160009054906101000a900473ffffffffffffffffffffffffffffffffffffffff16908060020154908060030154908060040160009054906101000a900473ffffffffffffffffffffffffffffffffffffffff16908060040160149054906101000a900460ff16905086565b6000606460015460646102809190610ab1565b60036000858152602001908152602001600020600301546102a19190610ae5565b6102ab9190610b56565b9050919050565b60006102bd8261026d565b9050600060036000848152602001908152602001600020905060008311610319576040517f08c379a000000000000000000000000000000000000000000000000000000000815260040161031090610be4565b60405180910390fd5b8134101561035c576040517f08c379a000000000000000000000000000000000000000000000000000000000815260040161035390610c50565b60405180910390fd5b8060040160149054906101000a900460ff16156103ae576040517f08c379a00000000000000000000000000000000000000000000000000000000081526004016103a590610cbc565b60405180910390fd5b8060040160009054906101000a900473ffffffffffffffffffffffffffffffffffffffff1673ffffffffffffffffffffffffffffffffffffffff166108fc82600301549081150290604051600060405180830381858888f1935050505015801561041c573d6000803e3d6000fd5b507f000000000000000000000000000000000000000000000000000000000000000073ffffffffffffffffffffffffffffffffffffffff166108fc8260030154846104679190610cdc565b9081150290604051600060405180830381858888f19350505050158015610492573d6000803e3d6000fd5b5060018160040160146101000a81548160ff0219169083151502179055503373ffffffffffffffffffffffffffffffffffffffff168160040160009054906101000a900473ffffffffffffffffffffffffffffffffffffffff1673ffffffffffffffffffffffffffffffffffffffff168260010160009054906101000a900473ffffffffffffffffffffffffffffffffffffffff1673ffffffffffffffffffffffffffffffffffffffff167f8b4c9c8a607d67b321582dd8461041b1dc2ceeca70c8b7f37f8e02095cf2e76d868560020154866003015460405161057893929190610d10565b60405180910390a4505050565b60015481565b600081116105ce576040517f08c379a00000000000000000000000000000000000000000000000000000000081526004016105c590610d93565b60405180910390fd5b600260008154809291906105e190610db3565b91905055508273ffffffffffffffffffffffffffffffffffffffff166323b872dd3330856040518463ffffffff1660e01b815260040161062393929190610dfb565b600060405180830381600087803b15801561063d57600080fd5b505af1158015610651573d6000803e3d6000fd5b505050506040518060c0016040528060025481526020018473ffffffffffffffffffffffffffffffffffffffff1681526020018381526020018281526020013373ffffffffffffffffffffffffffffffffffffffff168152602001600015158152506003600060025481526020019081526020016000206000820151816000015560208201518160010160006101000a81548173ffffffffffffffffffffffffffffffffffffffff021916908373ffffffffffffffffffffffffffffffffffffffff160217905550604082015181600201556060820151816003015560808201518160040160006101000a81548173ffffffffffffffffffffffffffffffffffffffff021916908373ffffffffffffffffffffffffffffffffffffffff16021790555060a08201518160040160146101000a81548160ff0219169083151502179055509050503373ffffffffffffffffffffffffffffffffffffffff168373ffffffffffffffffffffffffffffffffffffffff167f655a0cf9c8db81512be9a76dc1c5ae5380b8816ce6ad659cd61b715e2999d59a60025485856040516107fa93929190610d10565b60405180910390a3505050565b600073ffffffffffffffffffffffffffffffffffffffff82169050919050565b600061083282610807565b9050919050565b61084281610827565b82525050565b600060208201905061085d6000830184610839565b92915050565b6000819050919050565b61087681610863565b82525050565b6000602082019050610891600083018461086d565b92915050565b600080fd5b6108a581610863565b81146108b057600080fd5b50565b6000813590506108c28161089c565b92915050565b6000602082840312156108de576108dd610897565b5b60006108ec848285016108b3565b91505092915050565b6000819050919050565b600061091a61091561091084610807565b6108f5565b610807565b9050919050565b600061092c826108ff565b9050919050565b600061093e82610921565b9050919050565b61094e81610933565b82525050565b600061095f82610807565b9050919050565b61096f81610954565b82525050565b60008115159050919050565b61098a81610975565b82525050565b600060c0820190506109a5600083018961086d565b6109b26020830188610945565b6109bf604083018761086d565b6109cc606083018661086d565b6109d96080830185610966565b6109e660a0830184610981565b979650505050505050565b60006109fc82610827565b9050919050565b610a0c816109f1565b8114610a1757600080fd5b50565b600081359050610a2981610a03565b92915050565b600080600060608486031215610a4857610a47610897565b5b6000610a5686828701610a1a565b9350506020610a67868287016108b3565b9250506040610a78868287016108b3565b9150509250925092565b7f4e487b7100000000000000000000000000000000000000000000000000000000600052601160045260246000fd5b6000610abc82610863565b9150610ac783610863565b9250828201905080821115610adf57610ade610a82565b5b92915050565b6000610af082610863565b9150610afb83610863565b9250828202610b0981610863565b91508282048414831517610b2057610b1f610a82565b5b5092915050565b7f4e487b7100000000000000000000000000000000000000000000000000000000600052601260045260246000fd5b6000610b6182610863565b9150610b6c83610863565b925082610b7c57610b7b610b27565b5b828204905092915050565b600082825260208201905092915050565b7f4974656d20696420696e76616c69640000000000000000000000000000000000600082015250565b6000610bce600f83610b87565b9150610bd982610b98565b602082019050919050565b60006020820190508181036000830152610bfd81610bc1565b9050919050565b7f496e73756666696369656e740000000000000000000000000000000000000000600082015250565b6000610c3a600c83610b87565b9150610c4582610c04565b602082019050919050565b60006020820190508181036000830152610c6981610c2d565b9050919050565b7f416c726561647920736f6c640000000000000000000000000000000000000000600082015250565b6000610ca6600c83610b87565b9150610cb182610c70565b602082019050919050565b60006020820190508181036000830152610cd581610c99565b9050919050565b6000610ce782610863565b9150610cf283610863565b9250828203905081811115610d0a57610d09610a82565b5b92915050565b6000606082019050610d25600083018661086d565b610d32602083018561086d565b610d3f604083018461086d565b949350505050565b7f5072696365206d7573742062652067726561746572207468616e207a65726f00600082015250565b6000610d7d601f83610b87565b9150610d8882610d47565b602082019050919050565b60006020820190508181036000830152610dac81610d70565b9050919050565b6000610dbe82610863565b91507fffffffffffffffffffffffffffffffffffffffffffffffffffffffffffffffff8203610df057610def610a82565b5b600182019050919050565b6000606082019050610e106000830186610839565b610e1d6020830185610839565b610e2a604083018461086d565b94935050505056fea2646970667358221220e48904c66733b3bd3525a0d25df459a4186f922d41ffcc6d996fe2a893fe9b9364736f6c63430008110033",
  "linkReferences": {},
  "deployedLinkReferences": {}
}